:0C22C200080008100820083008400850F0
:10000E004100B4004100B0004200C4A5004400B558
:04001E002014122573
:04229900F583E0FFEA
:0A229D00C2998F993099FDC2992271
:10092200E490016FF0A3F0900172F0A3F09000C682
:10093200F09000CDF0A3F0A3F09000BBF09000D1B6
:10094200F09000B9F09000D0F09000B2F09000F377
:10095200F074FF900116F0A3F0759111E4F592F591
:1009620095F596F5B175B2B07590FF75A0FF75B0AB
:100972004BC2B4C2B5C2B2D2B3900152F0C201129C
:1009820022FA758E307F007E0E12220E9000D2EF78
:10099200F0D39480500374A4F07F007E0C12220ED8
:1009A20090016FEFF06003020A967F0AFE12203573
:1009B2007F007E0C12220E90016FEFF06003020A9C
:1009C20096FF7E041221CD7F007E061221CD7F008C
:1009D2007E081221CD7F007E0A1221CD7F007E0C7F
:1009E2001221CDE4900171F090016F745FF0121E3C
:1009F20077900170EFF075F00584E5F004FFA3E055
:100A02002474F582E43401F583EFF0900171E0047F
:100A1200F0E0C3940640D17DFF7F007E0C12205887
:100A2200900172740AF0A3E4F0900172E0FEA3E078
:100A3200FF900170F0E02474F582E43401F583E064
:100A4200FD122058900173E004F07006900172E0EC
:100A520004F0C3900173E09406900172E0940A409E
:100A6200C8E4900172F0A3F0900172E0FEA3E0FFEF
:100A7200C3943AEE9400501CE42FFFEE3406FE7D40
:100A820030122058900173E004F07006900172E079
:100A920004F080D4E4900171F0900171E0FFC394FE
:100AA200064003020B33EF25E024C2F582E4342230
:100AB200F583E493FF740193900172CFF0A3EFF0FA
:100AC200900171E025E024C2F582E43422F583E44A
:100AD20093FE740193FF2408FBE43EFA900172E056
:100AE200FCA3E0FDC39BEC9A503EC3ED9F900170C6
:100AF200F0AF05AE0412220E900170E0FEA3E07585
:100B0200F008A42480F582E43400F583E5822EF512
:100B120082E43583F583EFF0900173E004F0700610
:100B2200900172E004F08098900171E004F0020AF2
:100B32009B900172740AF0A3E4F0900172E0FEA3AC
:100B4200E0FF900170F012220E900170E024C7F5D0
:100B520082E43400F583EFF0900173E004F0700654
:100B6200900172E004F0C3900173E0940690017268
:100B7200E0940A40C5E4900172F0A3F0900172E0A3
:100B8200FEA3E0FFC3943AEE9400502AE42FFFEE56
:100B92003406FE12220E900172A3E02418F582E4BC
:100BA2003401F583EFF0900173E004F070069001D8
:100BB20072E004F080C67F007E0412220E9000B024
:020BC200EFF052
:010BC400220E
:101D8200E4FFD2A0D2A1D295D296D297D2A330A00C
:101D9200030F8004EF54FEFFEF30A1054402FF80E1
:101DA2000354FDFFEF2095054404FF800354FBFF1D
:101DB200EF2096054408FF800354F7FFEF209705B4
:101DC2004410FF800354EFFFEF30A3054440FF802F
:041DD2000354BFFFF8
:011DD60022EA
:10215300E4900170F07F0AFE122035121D82900177
:1021630070EFF07F0A7E00122035121D82900170FD
:0A217300E0FD6F60037F0022AF055E
:01217D00223F
:101C1D00E490016FF0A3F07F0AFE122035121D82B1
:101C2D0090016FEFF07F0A7E00122035121D829019
:101C3D000170EFF0FE90016FE0FD6E60037F0022FA
:101C4D00EDB41502FF22121D82900170EFF07D960A
:101C5D007C007F01121FA0120026900170E0600A27
:0F1C6D00121D82EFF075E13D80F090016FE0FFF6
:011C7C002245
:101CD500E490016FF0FE7F0A122035121D829001FB
:101CE5006FEFF07F0A7E00122035121D82AE07903D
:101CF500016FE06E60037F0022121D82AE07900126
:101D05006FE0FFB4500122EF64106005EE6440708F
:101D150010EE600D121D82AE0775E13DEEB450F177
:061D25002290016FE0FFB7
:011D2B002295
:10146100E490016FF01222A790016FE0C39406404F
:101471000302157875E13D122153EF24FE603524F6
:10148100FE604C24FC606324F8607A24D07003026F
:10149100152A243F60030215527D967C007F0112BC
:1014A1001FA090016FE024BCF582E43400F5837441
:1014B10001F0806A90016FE024BCF582E43400F50C
:1014C100837402F07D967C007F01121FA0804F90F3
:1014D100016FE024BCF582E43400F5837403F07DF0
:1014E100967C007F01121FA0803490016FE024BC24
:1014F100F582E43400F5837404F07D967C007F016D
:10150100121FA0801990016FE024BCF582E4340021
:10151100F5837405F07D967C007F01121FA0900178
:101521006FE004F01222A780287D967C007F0112D3
:101531001FA090016FE07002FF2212230C12000322
:101541007D967C007F02121FA0120006C2001212BB
:10155100099000BBE0C3940A500302146912230CE2
:101561001200037D967C007F02121FA0120006C2AA
:09157100001212090214697F0145
:01157A00224E
:1010CE00E490016FF01222A790016FE0C3940840E4
:1010DE000302120612215375E13DEF24FE60352402
:1010EE00FE604C24FC606324F8607A24D070030206
:1010FE001197243F60030211BF7D967C007F011281
:10110E001FA090016FE024BCF582E43400F58374D7
:10111E0001F0806A90016FE024BCF582E43400F5A2
:10112E00837402F07D967C007F01121FA0804F9089
:10113E00016FE024BCF582E43400F5837403F07D86
:10114E00967C007F01121FA0803490016FE024BCBA
:10115E00F582E43400F5837404F07D967C007F0103
:10116E00121FA0801990016FE024BCF582E43400B8
:10117E00F5837405F07D967C007F01121FA090010F
:10118E006FE004F01222A780287D967C007F01126A
:10119E001FA090016FE07002FF2212230C120003B9
:1011AE007D967C007F02121FA0120006C200121252
:1011BE00099000BBE0C3940A50030210D67F007E54
:1011CE000412220E9000B0E06F60137F007E0412B6
:1011DE0021CD9000B0E0FD7F007E04122058122336
:1011EE000C1200037D967C007F02121FA0120006D7
:0A11FE00C2001212090210D67F0190
:0112080022C3
:10209200E490016FF0C2011222FA1200261222DA33
:1020A2001200061222A7E490016FF07F797E0212DD
:1020B200203575E13D90016FE004F0E0C3940640E5
:0420C200EA1222E517
:0120C60022F7
:101FE000E490016FF0C2011222FA1200267DC87C33
:101FF000007F01121FA01222DA1200061222A7E4AB
:1020000090016FF07F797E0212203575E13D9001DD
:0D2010006FE004F0E0C3940640EA1222E500
:01201D0022A0
:0F228A00C28CC28D758CDC758A31D28CD2A922A0
:10222E0053877F759850538EBF538EFE75892175D7
:0C223E008BFA758DFAC2ABD28ED2AC22A6
:10002E00E490016EF090016BF0A3F0A3F0C2011208
:10003E0022FAE4900155F0900159F0A3F0A3F0A339
:10004E00F0A3F090015F120D6E00000000900163AE
:10005E00120D6E00000000E4900167F0A3F0A3F013
:10006E00A3F012092275E13D12228A12222E1220CD
:10007E00C7E49000B2F0121C1D9000B3EFF06401C3
:10008E0070030201B8E0FF640270030201B8EF646E
:10009E000470030201B8EF640870030201B8EF6444
:1000AE001070030201B8EF644070030201B8EF64F0
:1000BE001560030201B37DE87C037F01121FA012BD
:1000CE000026E49000B2F09000F3F043C5089000D3
:1000DE00B2E0700575E13D80F5E4900155F09001B8
:1000EE0055E0FF24D3F582E43400F583E0FE74F48A
:1000FE002FF582E43400F583EEF0900155E004F024
:10010E00E0B420DA7B017A0079F47D20120F8A9018
:10011E00015F120D6E000000009001557408F09002
:10012E00015FE0F8A3E0F9A3E0FAA3E0FB9001552C
:10013E00E024F4F582E43400F583E0FFE4FCFDFEF8
:10014E00EB2FFFEE3AFEED39FDEC38FC90015F121D
:10015E000D62900155E004F0E0B418C390015FE029
:10016E00FCA3E0FDA3E0FEA3E0FFE47B10FAF9F8A8
:10017E00120CD090015F120D6290015FA3A3A3E059
:10018E00900159F07F007E0E1221CD900159E0FDB5
:10019E007F007E0E1220587DE87C037F02121FA086
:1001AE0012230C8000C20012224AD2AF43C508901F
:1001BE0000B3E064406003020265FF7E0412220E6B
:1001CE00EF600F7F007E041221CDE4FDFF7E04124E
:1001DE0020589001567402F0A314F0E4A3F090019D
:1001EE005EF0900155F0900155E0FFC39406501358
:1001FE0074C72FF582E43400122299900155E00461
:10020E00F080E39000D2E0FF12229DE4900155F0C1
:10021E00900155E0FFC39402501374C42FF582E48D
:10022E003400122299900155E004F080E3E490012D
:10023E0055F0900155E0FFC39404501374B52FF59B
:10024E0082E43400122299900155E004F080E3120A
:10025E002092C2001212099000B3E0640260030201
:10026E0005FB75E13D7F0A7E001220351221539069
:10027E0000B3EFF01222A79000B3E06440600B9041
:10028E00016CE06401600302052675E13DD20112A6
:10029E0022FA7D967C007F01121FA0121B52400392
:1002AE000205219000B3E0644060030203A5122111
:1002BE00539000B3EFF075E13D9000BBE0C39405A1
:1002CE0040E11200061200267DE87C037F01121F1A
:1002DE00A0121646900155EFF012230C1200037D6A
:1002EE00E87C037F01121FA07F007E081221CDE45F
:1002FE0090015AF090015AE0FFC3940640030203A6
:10030E009AEF25E024C2F582E43422F583E493FFCC
:10031E00740193900167CFF0A3EFF090015AE0259E
:10032E00E024C2F582E43422F583E493FE74019353
:10033E00FF2408FBE43EFA900167E0FCA3E0FDC356
:10034E009BEC9A503EC3ED9F900159F0AF05AE0461
:10035E0012220E900159E0FEA3E075F008A424804D
:10036E00F582E43400F583E5822EF582E43583F5DB
:10037E0083EFF0900168E004F070A0900167E00454
:10038E00F0809890015AE004F0020302120006C2B7
:10039E00001212090202B17F0A7E001220351222CB
:1003AE00A7121646900155EFF07D967C007F011244
:1003BE001F101200261210CEE4900155F090015538
:1003CE00E0FFC394064003020501EF75F008A42474
:1003DE0080F582E43400F583E0FF6008C394065094
:1003EE00030204F8E4900159F0900159E0FF24BC97
:1003FE00F582E43400F583E0FE900155E075F008D7
:10040E00A42480F582E43400F583E5822FF582E49E
:10041E003583F583EEF0900159E004F0E0B408C99D
:10042E007F007E081221CDE490015AF090015AE02F
:10043E00FFC3940640030204E1EF25E024C2F582D7
:10044E00E43422F583E493FF740193900167CFF0B7
:10045E00A3EFF090015AE0F925E024C2F582E434CE
:10046E0022F5837401932408FDE4933400FC90017B
:10047E0067E0FAA3E0FBC39DEA9C504EE925E02419
:10048E00C2F582E43422F583740193FEC3EB9E9091
:10049E000159F0E0FFE975F008A42480F582E434F8
:1004AE0000F583E5822FF582E43583F583E0FD9038
:1004BE000167E0FEA3E0FF122058900168E004F00F
:1004CE007091900167E004F0808990015AE004F089
:1004DE0002043A1200061200267DE87C037F011208
:1004EE001FA012230CC200121209900155E004F055
:1004FE000203CB12230C1200037D967C007F0312A5
:10050E001FA0120006C2001212097DE87C037F01B3
:10051E00121FA0C2001212099000B0E0C394064050
:10052E00367F007E0412220EEF640660137F007E7B
:10053E00041221CD9000B0E0FD7F007E0412205801
:10054E0012230C1200037D967C007F03121FA01253
:10055E000006C2001212091210CEEF70030205F24D
:10056E00E490016CF0900155F0900155E0FFC394BA
:10057E00065053EF75F008A42480F9740035F0FA94
:10058E007B01C003900172EBF0A37400F0A374BC66
:10059E00F0A37408F0D003121BB8EF60217F007E29
:1005AE000412220EEF600F7F007E041221CDE4FDB7
:1005BE00FF7E04122058121FE0C200121209900191
:1005CE0055E004F080A312230C1200037D967C00EC
:1005DE007F02121FA01200069000B0E004F012007D
:1005EE002602027090016C7401F002027012212733
:1005FE007F0A7E001220351222A7121B52400302E0
:10060E00091D75E13D9000D0E0700A122153900053
:10061E00B3EFF080069000B37450F09000B3E02476
:10062E00F8602F24F8606224D0604324F0607C24AC
:10063E004C600302078A1200267DC87C007F0112DF
:10064E001FA012133A9000B9E0B401031222E50282
:10065E0007821200267DC87C007F01121FA012198E
:10066E00F39000B9E0B401031222E5020782121CD6
:10067E00D5900155EFF0BF10047F0180027F00EF8F
:10068E00444070030206108019121CD5900155EFDC
:10069E00F0BF10047F0180027F00EF444070030220
:1006AE0006109000D07401F002061075E13D122282
:1006BE00A7E4900156F0A3F0A3F07B017A017956DE
:1006CE00121F5C9001557450F0900155E0B4501C0F
:1006DE00122153900155EFF075E13D9000BBE0C340
:1006EE00940340E590015574FFF080DD900155E0D4
:1006FE00F46005C2001212091200037DF47C017F22
:10070E0001121FA0122153900159EFF0900159E0F0
:10071E00600D122153900159EFF075E13D80ED12FD
:10072E000006120026121461EF602090017274010F
:10073E00F0A37400F0A374BCF0A37406F07B017AEE
:10074E000079C7121BB8EF7019800012230C12002B
:10075E00037D967C007F02121FA0120006C20012BB
:10076E001209E49000B3F012157B9000B9E0B401C9
:10077E00031222E5C2011222FA02091575E13D901B
:10078E00016BE070441222B59000B1EFF090016B56
:10079E007401F09001567403F0E4A3F0A37439F0E1
:1007AE00E4900152F07B017A017956121F5C9001A0
:1007BE00867401F0A37401F0A3745EF07B017A01DC
:1007CE0079527DF47C01121A719000B1E024FE6022
:1007DE004604600302090C9000B9E070121222DA8E
:1007EE009000B97401F0E49000CFF09000BBF0904F
:1007FE0000BBE0C3940550030206101200037D9661
:10080E007C007F02121FA01200069000B9E0B40116
:10081E00031222E50209151221A9900155EFF06489
:10082E00AA7023FF7E0412220EEF600F7F007E045B
:10083E001221CDE4FDFF7E04122058C2011222FACD
:10084E00121FE0020915900155E06455706A90017F
:10085E006EE004F01200037D967C007F03121FA051
:10086E0012000690016EE0C39403400AC2011222E8
:10087E00FAC200121209E49000CFF09000BBF09083
:10088E0001567403F0E4A3F0A37439F0E49001521E
:10089E00F07B017A017956121F5C9001867401F08B
:1008AE00A37401F0A3745EF07B017A0179527DF49A
:1008BE007C01121A71020610900155E0702F900003
:1008CE00BBE0C39408401E1200037D967C007F039C
:1008DE00121FA01200069000B9E0B401031222E527
:1008EE00C2001212097F03122262020610120003C6
:1008FE007D967C007F03121FA012000680097DC822
:10090E007C007F03121DD7C200121209020610C20C
:04091E0000021209B8
:03000B0002185682
:10185600C0E0C083C082C0D075D000C007758CDCE4
:10186600758A319000CFE004F09000C6E004F09055
:1018760000CEE004F070069000CDE004F09000CFBA
:10188600E0B4C819E4F09000BBE004F0E0C3943C77
:10189600400B9000D1E004F09000BBE4F090018E84
:1018A600E004F0700690018DE004F0900114E0C3AE
:1018B600940540187405F0900115E0600A900153F4
:1018C600F09001527401F0900115E4F0900114E0DB
:0D18D60004F0D007D0D0D082D083D0E03213
:030023000220FABE
:0B20FA00C0E0C083C082C0D075D008D9
:10210500309816C298AF99900115E0FE04F074213D
:092115002EF8A60F900114E4F06D
:09211E00D0D0D082D083D0E03291
:03002B00021E2989
:0D1E2900C0E0C083C082C0D075D000C007EB
:101E360053C5EF900154E5C6F09000F3E024D3F5C6
:101E460082E43400F583E5C6F09000F3E004F0E0A8
:101E5600FFC3942040069000B27401F0EF541F9027
:061E660000F3F043C50883
:0B1E6C00D007D0D0D082D083D0E0326D
:0B1BB80090016FEBF0A3EAF0A3E9F04E
:101BC3009001767401F0E4FFFE900175E0FDC3EF30
:101BD3009D7480F86E98503C90016FE0FBA3E0FA8F
:101BE300A3E0F98F828E83120BDE900177F09001D0
:101BF30072E0FBA3E0FAA3E0F98F828E83120BDE7F
:101C0300FD900177E06D6005E4900176F00FBF0071
:091C1300010E80B5900176E0FF9E
:011C1C0022A5
:10226200E49000C6F09000C6E0C39F500875E13DBF
:0622720000000080F022D4
:1021EE00EF24FE600C14600E2402700FD2B4C2B540
:1021FE0022C2B4D2B522D2B4D2B522C2B4C2B52252
:10120900300003C2B222E4900176F0900176E0FF4B
:1012190024D3F582E43400F583E0FE74F42FF582DB
:10122900E43400F583EEF0900176E004F0E0B420B8
:10123900DA7B017A0079F47D20120F8A900172120B
:101249000D6E000000009001767408F0900172E0C4
:10125900F8A3E0F9A3E0FAA3E0FBA3E024F4F58204
:10126900E43400F583E0FFE4FCFDFEEB2FFFEE3AEA
:10127900FEED39FDEC38FC900172120D6290017699
:10128900E004F0E0B418C5900172E0FCA3E0FDA30E
:10129900E0FEA3E0FFE47B10FAF9F8120CD090010C
:1012A90072120D62900172A3A3A3E0FF9000D2E035
:1012B900FEEFC39E504212230C120003E490017604
:1012C900F07D507C007F03121FA07F797E021220DF
:1012D9003575E13D900176E004F0E0C3940A40E100
:1012E9007D507C007F07121FA012000612230CC23A
:1012F900011222FAD2B280FE9000BBE0D3940350CF
:101309001875E13D30A4F112000612230CC2011236
:1013190022FA75E13DD2B280FE12000612230CC2F8
:10132900011222FA7DE87C037F01121FA0D2B2804C
:01133900FEB5
:10224A00300003C2B2221222A712000612230CC2C5
:08225A00011222FAD2B280FE4B
:0922FA00300103C2B322D2B32269
:03000300C2932283
:03000600D2932270
:03002600C2922261
:03230C00D2922248
:10201E001221EE7FC87E0012203512203512203597
:07202E00E4FF1221EE7F0A1E
:10203500E4FDFCC3ED9FEC9E5018E4FBFA75E13D11
:102045000BBB00010ABA03F5BBE8F20DBD00010C9C
:0220550080E128
:012057002266
:0A1D2C00900175ECF0A3EDF0A9079B
:101D3600E4A3F0A3F0E9FFC3900178E09F7480F874
:101D4600900177E06480985032120003900175E0AC
:101D5600FEA3E0FF12203575E13D120006900175E5
:101D6600E0FEA3E0FF12203575E13D900178E00426
:0B1D7600F070C2900177E004F080BA2A
:011D8100223F
:0A1C7D0090017DECF0A3EDF0A90743
:101C8700E4A3F0A3F0E9FFC3900180E09F7480F81C
:101C970090017FE0648098503212000312230C9069
:101CA700017DE0FEA3E0FF12203512000612002698
:101CB70090017DE0FEA3E0FF122035900180E00453
:0E1CC700F070C290017FE004F080BA02230C9E
:03230F00D2B72220
:03231200C2B7222D
:08217E0090017DE0FEA3E0FFEB
:10218600E4FDFCC3ED9FEC9E5018E4FBFA75E13DBF
:102196000BBB00010ABA05F5BBDCF20DBD00010C54
:0221A60080E1D6
:0121A8002214
:0A1FA00090017DECF0A3EDF0A9071D
:101FAA00E4A3F0A3F0E9FFC3900180E09F7480F8F6
:101FBA0090017FE0648098501C12230F12217E1238
:101FCA00231212217E900180E004F070D890017FE4
:051FDA00E004F080D0DE
:011FDF0022DF
:0A1EC40090017DECF0A3EDF0A907FA
:101ECE00E4A3F0A3F0E9FFC3900180E09F7480F8D3
:101EDE0090017FE0648098502812230F1200039027
:101EEE00017D12218112231212000690017D122112
:101EFE0081900180E004F070CC90017FE004F080CE
:011F0E00C40E
:011F0F0022AF
:0A1F100090017DECF0A3EDF0A907AD
:101F1A00E4A3F0A3F0E9FFC3900180E09F7480F886
:101F2A0090017FE0648098502812230F12002690B7
:101F3A00017D12218112231212230C90017D12219C
:101F4A0081900180E004F070CC90017FE004F08081
:011F5A00C4C2
:011F5B002263
:0A1DD700900174ECF0A3EDF0A907F1
:101DE100E4A3F0A3F0E9FFC3900177E09F7480F8CA
:101DF100900176E0648098502E12230F1200031296
:101E0100002690017412218112231212000612235E
:101E11000C900174122181900177E004F070C6905A
:071E21000176E004F080BE31
:011E28002297
:10212700E4FF1221EED200121209D2011222FAE4C0
:102137009000C6F01200061200269000C6E0C39475
:0C2147000A50030080F412230C02231243
:0B22DA001200267F0112201E02230CC0
:0B22E5001200267F0212201E02230CB4
:0E22A700E49000CFF09000BBF09000D1F02248
:10164600E4900170F0A3F075E13D900170E0700C3C
:101656001222B590016FEFF0A37401F090016FE0D4
:1016660024FE601D0460030216FA1200037D967CB8
:10167600007F02121FA0120006C2001212097F008C
:10168600221217C1EF64017037900116E07002A3B1
:10169600E070037F0122900171E004F01200037DE7
:1016A600967C007F03121FA0120006900171E0C312
:1016B60094034034C2011222FAC200121209802891
:1016C600900171E004F01200037D967C007F031206
:1016D6001FA0120006900171E0C39403400AC201E4
:1016E6001222FAC200121209E49000CFF09000BB59
:1016F600F002164D7DC87C007F03121DD7C2001272
:05170600120902164D5E
:10157B00E490016FF01200037D647C007F01121F69
:10158B00A09001707404F0E4A3F0A37439F07B0114
:10159B007A017970121F5CE490016FF090016FE09B
:1015AB00FFC3943A501574182FF582E43401F58378
:1015BB007430F090016FE004F080E17F007E061242
:1015CB0021CDE4900173F0A3F0900173E0FCA3E054
:1015DB00FD2400FFEC3406FE74182DF582E4340173
:1015EB00F583E0FD122058900174E004F070069032
:1015FB000173E004F0C3900174E0943A900173E03E
:10160B00940040C5E490016FF075E13D7F797E0257
:10161B0012203590016FE004F0E0C3940640EA7DA0
:10162B00F47C017F01121FA01200067F907E011235
:0B163B0020357D907C017F03021D2CF8
:0D22B500900118E0B430037F01227F022267
:1022780074182FF582E43401F583E0B43102D322D7
:02228800C3226F
:1017C1009001757403F0E4A3F0A37439F0E490017F
:1017D10052F07B017A017975121F5C9001867401C8
:1017E100F0A37401F0A37478F07B017A0179527D42
:1017F100F47C01121A71900178E064027054900136
:1018010052F07B0190018604F0A37401F0A3747877
:10181100F07A0179527D407C1F121A71900178E0B3
:101821006402702B900152F07821E6643A701D0831
:10183100E6B4031808E6B4AA1308E6B4010E08E6F4
:10184100FF900116E4F0A3EFF07F01227F00227FD9
:0418510000227F00F2
:011855002270
:1021A900900152E064017019F07821E6B43A0F0801
:1021B900E6B4030A7824E6B4010418E6FF227F0096
:0421C900227F00224F
:10196F0090017D7402F0A3EDF0A3EFF0E49001522B
:10197F00F07B017A01797D121F5C9001867401F072
:10198F00A37401F0A37480F07B017A0179527DF486
:10199F007C01121A71900180E0640270447B019007
:1019AF00018604F0A37401F0A37480F07A017952D8
:1019BF007D407C1F121A71900180E06402701F90AD
:1019CF000152F07821E6B43A1208E6B4020D08E6A7
:1019DF00B4AA0808E6B401037F01227F00227F002A
:0319EF00227F0054
:0119F20022D2
:08170B00900174EFF0A3EDF072
:10171300A37404F0A3EFF0A3EDF0E4900152F07B87
:10172300017A017976121F5C9001867401F0A3742B
:1017330001F0A3747BF07B017A0179527DF47C0183
:10174300121A7190017BE064027070900174E0FFE3
:10175300900175E0FEEFD39E501074182FF582E4CC
:101763003401F5837430F00F80E67F007E0612218A
:10177300CDE4900179F0A3F0900179E0FCA3E0FDC2
:101783002400FFEC3406FE74182DF582E43401F5D1
:1017930083E0FD12205890017AE004F07006900176
:1017A30079E004F0C390017AE0943A900179E094EF
:0D17B3000040C5E4900152F07F01227F004C
:0117C0002206
:050DAB00900175EFF05E
:100DB000E4FE900178F0A3F0A3F0C20075E13DEFEE
:100DC00070629001767403F0900176E0FFD3941482
:100DD000501B7E001222785014900176E0B4140566
:100DE00074FFF08008900176E004F080DB7F017EE4
:100DF00000122278400890017A7401F080197F0275
:100E00007E00122278400890017A7402F0800890E7
:100E10000176E090017AF090017AE0F46003020E2E
:100E2000BD020EA9900175E06401704BA37415F02A
:100E3000900176E0FFD39426501B7E00122278505A
:100E400014900176E0B4260574FFF08008900176D6
:100E5000E004F080DB7F027E0012227840089001DF
:100E60007A7402F08008900176E090017AF09001A7
:100E700076E0F4704880329001767427F090017625
:100E8000E0FFD39439501B7E001222785014900159
:100E900076E0B4390574FFF08008900176E004F044
:100EA00080DB900176E0B4FF0C7DE87C037F0312C9
:100EB0001EC47F0022900176E090017AF0900178C4
:100EC000E004F07D967C007F01121F10E490017613
:100ED000F07B0190018604F0A37401F0A37477F015
:100EE0007A0179767DE87C03121A717D967C007F09
:100EF00001121F1090017AE0FF7D0112196F90011D
:100F000076EFF0E07002FF2290017AE0FF7D02129E
:100F1000196F900176EFF0E07002FF2290017AE005
:100F20002418F582E43401F5837431F07F007E06E5
:100F30001221CDE490017BF0A3F090017BE0FCA3B3
:100F4000E0FD2400FFEC3406FE74182DF582E43435
:100F500001F583E0FD12205890017CE004F070065A
:100F600090017BE004F0C390017CE0943A90017B17
:100F7000E0940040C57DE87C037F01121FA07DC87E
:090F80007C007F03121C7D7F013F
:010F89002245
:081AE700900171EEF0A3EFF095
:101AEF0012002675E13D900171E07002A3E07010C5
:101AFF007D397F0112170B900173EFF07039802C35
:101B0F00900171E07004A3E0640170127D267F15CF
:101B1F0012170B900173EFF07002801080197D394E
:101B2F007F2712170B900173EFF0700B7D96FC7FE0
:101B3F0003121EC47F00227DE87C037F01121F1059
:021B4F007F0114
:011B51002271
:10133A00E4900172F01222B5900171EFF06401603D
:10134A00030213D67D01FF12196F90016FEFF0E0CF
:10135A007002800F7D02E4FF12196F90016FEFF0A7
:10136A00E070087D96FC7F03021EC4900118743158
:10137A00F07F007E061221CDE4900173F0A3F09075
:10138A000173E0FCA3E0FD2400FFEC3406FE7418B0
:10139A002DF582E43401F583E0FD122058900174A2
:1013AA00E004F07006900173E004F0C3900174E069
:1013BA00943A900173E0940040C57DE87C037F0174
:1013CA00121F107DC87C007F03021C7D900171E012
:1013DA006402600302146075E13D1217C17E00EFDA
:1013EA0070167D96FC7F03121EC4900172E004F011
:1013FA00E0D39402506080DFC3900117E094039019
:10140A000116E09400503A7DF47C017F01121F100E
:10141A00E490016FF07B0190018604F0A37401F05F
:10142A00A37470F07A01796F7DD07C07121A717DEE
:10143A00967C007F01121F10900116A3E0FF020D97
:10144A00AB7D967C007F03121EC4900172E004F00B
:06145A00E0D39402408182
:011460002269
:1019F300E4900170F01222B590016FEFF0BF01097E
:101A03007D967C007F03021EC490016FE064027028
:101A13005C75E13D1217C17E00EF70167D96FC7F69
:101A230003121EC4900170E004F0E0D39402503D11
:101A330080DFC3900117E09403900116E0940050F7
:101A4300171200067DF47C017F01121F109001160E
:101A5300E0FEA3E0FF021AE77D967C007F03121EDF
:0D1A6300C4900170E004F0E0D3940240A4B0
:011A70002253
:101B5200E490016FF0A3F0A3F0A3F075E13DE490EF
:101B62000152F07B017A017970121F5C9001867438
:101B720001F0A37401F0A37473F07B017A0179522E
:101B82007DF47C01121A71900173E0B40207E490B3
:101B92000152F0D32290016FE004F0E0C3940240BE
:101BA2000E1200037D967C007F02121DD7C3227F96
:061BB2000A12226280A568
:0A22F000C2998F993099FDC299221E
:101F5C007F3A1222F07FFF1222F01222F01222F0AE
:101F6C00120BC5FF1222F0900001120BDEFF1222A1
:101F7C00F0900002120BDEFF1222F0900001120B07
:101F8C00DEFF120BC524372FFF900002120BDE2F41
:041F9C00FF0222F02E
:0C22CE00C2AF53E71843E70343E7802248
:0923030053E77FE4F5E6D2AF22B6
:10220E00AD07AC06ECF5E3EDF5E453E5F843E50177
:10221E001222CE75E64675E6B900122303AFE2220E
:1021CD00E4FDEE54FEFCF5E3E4F5E453E5F843E5F8
:1021DD00031222CE75E64675E6B9001223037F0180
:0121ED0022CF
:10205800AB07AA06EAF5E3EBF5E453E5F843E50236
:102068008DE21222CE75E64675E6B900E4F5E25334
:10207800E5F843E50175E64675E6B900122303E580
:0A208800E2B505037F01227F00226C
:1020C70075910175920175C5807F057E00122035D7
:1020D700758E30D2ADE4F5C67F209000D374FFF043
:1020E700A3DFFCE49000F3F07B017A0079D37D2035
:0320F700020F8A4B
:0B0F8A00900177EBF0A3EAF0A3E9F080
:100F9500E490017BF0ED1490017AF090017AE0FF86
:100FA500A3E0FEC39F40030210CDEF14A3F0E4902D
:100FB500017AF090017DEEF090017CE0FFA3E0D393
:100FC5009F5069E0FF2401FDE433FC900177E0FBCD
:100FD500A3E0FAA3E0F98D828C83120BDEFE8F82EB
:100FE500758300120BDED39E403A90017DE0F582B9
:100FF500758300120BDE90017EF07E008F828E835A
:10100500A3120BDEFD90017DE0FCF582758300EDFA
:10101500120C1D90017EE08F828E83A3120C1D9011
:10102500017AECF090017DE004F0808C90017BE08A
:1010350004A3F0E490017BF090017AE090017DF04B
:1010450090017CE0FFA3E0C39F5003020FA0E0FFE7
:1010550024FFFDE434FFFC900177E0FBA3E0FAA355
:10106500E0F98D828C83120BDEFE8F827583001270
:101075000BDEFFEED39F404790017DE0FFF58275C3
:101085008300120BDE90017EF07E0074FF2FF58247
:10109500EE34FFF583120BDEFD90017DE0FCF58259
:1010A500758300ED120C1D90017EE0FD74FF2FF598
:1010B50082EE34FFF583ED120C1D90017BECF09070
:0810C500017DE014F00210456A
:0110CD002200
:101A7100900181EBF0A3EAF0A3E9F0A3ECF0A3ED70
:101A8100F0E490018DF0A3F0900181E0FBA3E0FA76
:101A9100A3E0F9120BC5702E75E13D900184E0FEC3
:101AA100A3E0FF7C007D05120C3FC390018EE09FF7
:101AB10090018DE09E40D1900186E0FBA3E0FAA366
:101AC100E0F97401801C900181E0FBA3E0FAA3E03E
:101AD100F9E4120C0B900186E0FBA3E0FAA3E0F914
:061AE1007402120C0B223E
:030000000218E300
:0C18E300787FE4F6D8FD75813402192AE4
:100BC500BB010689828A83E0225002E722BBFE022E
:090BD500E32289828A83E4932261
:100BDE00BB010CE58229F582E5833AF583E02250CC
:100BEE0006E92582F8E622BBFE06E92582F8E22216
:0D0BFE00E58229F582E5833AF583E4932230
:100C0B00BB010689828A83F0225002F722BBFE01C8
:020C1B00F322C2
:100C1D00F8BB010DE58229F582E5833AF583E8F00D
:100C2D00225006E92582C8F622BBFE05E92582C8B9
:020C3D00F222A1
:100C3F00BC000BBE0029EF8DF084FFADF022E4CC99
:100C4F00F875F008EF2FFFEE33FEEC33FCEE9DEC62
:100C5F00984005FCEE9DFE0FD5F0E9E4CEFD22EDA8
:100C6F00F8F5F0EE8420D21CFEADF075F008EF2FF2
:100C7F00FFED33FD4007985006D5F0F222C398FDE3
:050C8F000FD5F0EA2280
:100C940075F008758200EF2FFFEE33FECD33CDCC17
:100CA40033CCC58233C5829BED9AEC99E58298409A
:100CB4000CF582EE9BFEED9AFDEC99FC0FD5F0D677
:100CC400E4CEFBE4CDFAE4CCF9A88222B800C1B9A1
:100CD4000059BA002DEC8BF084CFCECDFCE5F0CBDF
:100CE400F97818EF2FFFEE33FEED33FDEC33FCEB18
:100CF40033FB10D703994004EB99FB0FD8E5E4F9D3
:100D0400FA227818EF2FFFEE33FEED33FDEC33FCBF
:100D1400C933C910D7059BE99A4007EC9BFCE99AB3
:100D2400F90FD8E0E4C9FAE4CCFB2275F010EF2FF8
:100D3400FFEE33FEED33FDCC33CCC833C810D707F8
:100D44009BEC9AE899400AED9BFDEC9AFCE899F833
:0E0D54000FD5F0DAE4CDFBE4CCFAE4C8F922C6
:0C0D6200ECF0A3EDF0A3EEF0A3EFF02204
:100D6E00A8828583F0D083D082120D85120D851254
:100D7E000D85120D85E473E493A3C583C5F0C58379
:100D8E00C8C582C8F0A3C583C5F0C583C8C582C8CF
:010D9E002232
:101E7700900189120D9F7810EC4D4E4F70047CA590
:101E87007DA5C3EC13FCED13FDEE13FEEF13FF501E
:101E970010EC64CCFCED644CFDEE644EFEEF64CEBA
:101EA700FFD8DF900189120D62EE547FFE22900168
:0D1EB70089EEF0EFA3F0A374A5F0A3F022D4
:1018EF0002002EE493A3F8E493A34003F68001F2E1
:1018FF0008DFF48029E493A3F85407240CC8C333FA
:10190F00C4540F4420C8834004F456800146F6DFC8
:10191F00E4800B010204081020408090000EE47E4A
:10192F00019360BCA3FF543F30E509541FFEE493BD
:10193F00A360010ECF54C025E060A840B8E493A384
:10194F00FAE493A3F8E493A3C8C582C8CAC583CAAF
:10195F00F0A3C8C582C8CAC583CADFE9DEE780BE67
:0100220000DD
:0C0D9F00E0FCA3E0FDA3E0FEA3E0FF22C7
:00000001FF
